{
  "_format": "hh-sol-artifact-1",
  "contractName": "DIDRegistry",
  "sourceName": "contracts/DIDRegistry.sol",
  "abi": [
    {
      "anonymous": false,
      "inputs": [
        {
          "indexed": true,
          "internalType": "bytes32",
          "name": "did",
          "type": "bytes32"
        },
        {
          "indexed": true,
          "internalType": "address",
          "name": "controller",
          "type": "address"
        },
        {
          "indexed": false,
          "internalType": "string",
          "name": "cid",
          "type": "string"
        }
      ],
      "name": "DIDRegistered",
      "type": "event"
    },
    {
      "anonymous": false,
      "inputs": [
        {
          "indexed": true,
          "internalType": "bytes32",
          "name": "did",
          "type": "bytes32"
        }
      ],
      "name": "DIDRevoked",
      "type": "event"
    },
    {
      "anonymous": false,
      "inputs": [
        {
          "indexed": true,
          "internalType": "bytes32",
          "name": "did",
          "type": "bytes32"
        },
        {
          "indexed": false,
          "internalType": "string",
          "name": "newCid",
          "type": "string"
        }
      ],
      "name": "DIDUpdated",
      "type": "event"
    },
    {
      "inputs": [
        {
          "internalType": "string",
          "name": "_cid",
          "type": "string"
        }
      ],
      "name": "createDID",
      "outputs": [],
      "stateMutability": "nonpayable",
      "type": "function"
    },
    {
      "inputs": [
        {
          "internalType": "address",
          "name": "_owner",
          "type": "address"
        }
      ],
      "name": "getDIDsByOwner",
      "outputs": [
        {
          "internalType": "bytes32[]",
          "name": "",
          "type": "bytes32[]"
        }
      ],
      "stateMutability": "view",
      "type": "function"
    },
    {
      "inputs": [
        {
          "internalType": "bytes32",
          "name": "_did",
          "type": "bytes32"
        }
      ],
      "name": "resolveDID",
      "outputs": [
        {
          "internalType": "address",
          "name": "",
          "type": "address"
        },
        {
          "internalType": "string",
          "name": "",
          "type": "string"
        },
        {
          "internalType": "enum DIDRegistry.Status",
          "name": "",
          "type": "uint8"
        }
      ],
      "stateMutability": "view",
      "type": "function"
    },
    {
      "inputs": [
        {
          "internalType": "bytes32",
          "name": "_did",
          "type": "bytes32"
        }
      ],
      "name": "revokeDID",
      "outputs": [],
      "stateMutability": "nonpayable",
      "type": "function"
    },
    {
      "inputs": [
        {
          "internalType": "bytes32",
          "name": "_did",
          "type": "bytes32"
        },
        {
          "internalType": "string",
          "name": "_newCid",
          "type": "string"
        }
      ],
      "name": "updateDID",
      "outputs": [],
      "stateMutability": "nonpayable",
      "type": "function"
    }
  ],
  "bytecode": "0x6080604052348015600f57600080fd5b50610b928061001f6000396000f3fe608060405234801561001057600080fd5b50600436106100575760003560e01c80630532caa41461005c5780633457d3e2146100855780633e79f9261461009a578063da83fef4146100ad578063de8d4ed2146100c0575b600080fd5b61006f61006a36600461066d565b6100e2565b60405161007c919061069d565b60405180910390f35b610098610093366004610729565b61014e565b005b6100986100a836600461076b565b610355565b6100986100bb366004610784565b610465565b6100d36100ce36600461076b565b61057b565b60405161007c939291906107e6565b6001600160a01b03811660009081526002602090815260409182902080548351818402810184019094528084526060939283018282801561014257602002820191906000526020600020905b81548152602001906001019080831161012e575b50505050509050919050565b336000818152600160209081526040808320549051909361019092909185910160609290921b6bffffffffffffffffffffffff19168252601482015260340190565b60408051601f1981840301815291815281516020928301206000818152928390529120549091506001600160a01b0316156102125760405162461bcd60e51b815260206004820152601f60248201527f44494452656769737472793a2044494420616c7265616479206578697374730060448201526064015b60405180910390fd5b6040518060600160405280336001600160a01b0316815260200185858080601f0160208091040260200160405190810160405280939291908181526020018383808284376000920182905250938552505050602091820181905283815280825260409020825181546001600160a01b0319166001600160a01b039091161781559082015160018201906102a59082610907565b50604082015160028201805460ff1916600183818111156102c8576102c86107d0565b02179055505033600090815260016020526040812080549250906102eb836109c6565b9091555050336000818152600260209081526040808320805460018101825590845291909220018390555182907f3d34a9edac1831cc11a06bc2728e2d1c6542a5d8a4dff2ae70720a4f8bbab31b9061034790889088906109ed565b60405180910390a350505050565b600081815260208190526040902080546001600160a01b031661038a5760405162461bcd60e51b815260040161020990610a1c565b80546001600160a01b031633146103b35760405162461bcd60e51b815260040161020990610a53565b6000600282015460ff1660018111156103ce576103ce6107d0565b146104275760405162461bcd60e51b815260206004820152602360248201527f44494452656769737472793a2044494420697320616c7265616479207265766f6044820152621ad95960ea1b6064820152608401610209565b60028101805460ff1916600117905560405182907f7a543322b68a1d7456f634040cba2f200b22e34e209c37313128e0d6d0e9733f90600090a25050565b600083815260208190526040902080546001600160a01b031661049a5760405162461bcd60e51b815260040161020990610a1c565b80546001600160a01b031633146104c35760405162461bcd60e51b815260040161020990610a53565b6000600282015460ff1660018111156104de576104de6107d0565b1461052b5760405162461bcd60e51b815260206004820152601b60248201527f44494452656769737472793a20444944206973207265766f6b656400000000006044820152606401610209565b6001810161053a838583610a9c565b50837ff6d9d269aff3ef8d7ee369cdb4e3c871f01275acf1ed09bc93ee73fd5a5f64a4848460405161056d9291906109ed565b60405180910390a250505050565b6000818152602081905260408120805460609183916001600160a01b03166105b55760405162461bcd60e51b815260040161020990610a1c565b805460028201546001830180546001600160a01b0390931692909160ff169082906105df9061087e565b80601f016020809104026020016040519081016040528092919081815260200182805461060b9061087e565b80156106585780601f1061062d57610100808354040283529160200191610658565b820191906000526020600020905b81548152906001019060200180831161063b57829003601f168201915b50505050509150935093509350509193909250565b60006020828403121561067f57600080fd5b81356001600160a01b038116811461069657600080fd5b9392505050565b602080825282518282018190526000918401906040840190835b818110156106d55783518352602093840193909201916001016106b7565b509095945050505050565b60008083601f8401126106f257600080fd5b50813567ffffffffffffffff81111561070a57600080fd5b60208301915083602082850101111561072257600080fd5b9250929050565b6000806020838503121561073c57600080fd5b823567ffffffffffffffff81111561075357600080fd5b61075f858286016106e0565b90969095509350505050565b60006020828403121561077d57600080fd5b5035919050565b60008060006040848603121561079957600080fd5b83359250602084013567ffffffffffffffff8111156107b757600080fd5b6107c3868287016106e0565b9497909650939450505050565b634e487b7160e01b600052602160045260246000fd5b60018060a01b0384168152606060208201526000835180606084015260005b818110156108225760208187018101516080868401015201610805565b506000608082850101526080601f19601f8301168401019150506002831061085a57634e487b7160e01b600052602160045260246000fd5b826040830152949350505050565b634e487b7160e01b600052604160045260246000fd5b600181811c9082168061089257607f821691505b6020821081036108b257634e487b7160e01b600052602260045260246000fd5b50919050565b601f82111561090257806000526020600020601f840160051c810160208510156108df5750805b601f840160051c820191505b818110156108ff57600081556001016108eb565b50505b505050565b815167ffffffffffffffff81111561092157610921610868565b6109358161092f845461087e565b846108b8565b6020601f82116001811461096957600083156109515750848201515b600019600385901b1c1916600184901b1784556108ff565b600084815260208120601f198516915b828110156109995787850151825560209485019460019092019101610979565b50848210156109b75786840151600019600387901b60f8161c191681555b50505050600190811b01905550565b6000600182016109e657634e487b7160e01b600052601160045260246000fd5b5060010190565b60208152816020820152818360408301376000818301604090810191909152601f909201601f19160101919050565b6020808252601f908201527f44494452656769737472793a2044494420646f6573206e6f7420657869737400604082015260600190565b60208082526029908201527f44494452656769737472793a2043616c6c6572206973206e6f7420746865206360408201526837b73a3937b63632b960b91b606082015260800190565b67ffffffffffffffff831115610ab457610ab4610868565b610ac883610ac2835461087e565b836108b8565b6000601f841160018114610afc5760008515610ae45750838201355b600019600387901b1c1916600186901b1783556108ff565b600083815260209020601f19861690835b82811015610b2d5786850135825560209485019460019092019101610b0d565b5086821015610b4a5760001960f88860031b161c19848701351681555b505060018560011b018355505050505056fea2646970667358221220fe980c4341e5a60672e54bc10c6274670366ca3f342aac9ed4720142341ef81a64736f6c634300081c0033",
  "linkReferences": {},
  "deployedLinkReferences": {}
}