{
  "_format": "hh-sol-artifact-1",
  "contractName": "VCRegistry",
  "sourceName": "contracts/VCRegistry.sol",
  "abi": [
    {
      "inputs": [],
      "stateMutability": "nonpayable",
      "type": "constructor"
    },
    {
      "inputs": [],
      "name": "AccessControlBadConfirmation",
      "type": "error"
    },
    {
      "inputs": [
        {
          "internalType": "address",
          "name": "account",
          "type": "address"
        },
        {
          "internalType": "bytes32",
          "name": "neededRole",
          "type": "bytes32"
        }
      ],
      "name": "AccessControlUnauthorizedAccount",
      "type": "error"
    },
    {
      "anonymous": false,
      "inputs": [
        {
          "indexed": true,
          "internalType": "bytes32",
          "name": "leaf",
          "type": "bytes32"
        },
        {
          "indexed": true,
          "internalType": "bytes32",
          "name": "merkleRoot",
          "type": "bytes32"
        },
        {
          "indexed": true,
          "internalType": "address",
          "name": "revoker",
          "type": "address"
        }
      ],
      "name": "BatchCredentialRevoked",
      "type": "event"
    },
    {
      "anonymous": false,
      "inputs": [
        {
          "indexed": true,
          "internalType": "bytes32",
          "name": "merkleRoot",
          "type": "bytes32"
        },
        {
          "indexed": true,
          "internalType": "address",
          "name": "issuer",
          "type": "address"
        }
      ],
      "name": "BatchCredentialsIssued",
      "type": "event"
    },
    {
      "anonymous": false,
      "inputs": [
        {
          "indexed": true,
          "internalType": "bytes32",
          "name": "role",
          "type": "bytes32"
        },
        {
          "indexed": true,
          "internalType": "bytes32",
          "name": "previousAdminRole",
          "type": "bytes32"
        },
        {
          "indexed": true,
          "internalType": "bytes32",
          "name": "newAdminRole",
          "type": "bytes32"
        }
      ],
      "name": "RoleAdminChanged",
      "type": "event"
    },
    {
      "anonymous": false,
      "inputs": [
        {
          "indexed": true,
          "internalType": "bytes32",
          "name": "role",
          "type": "bytes32"
        },
        {
          "indexed": true,
          "internalType": "address",
          "name": "account",
          "type": "address"
        },
        {
          "indexed": true,
          "internalType": "address",
          "name": "sender",
          "type": "address"
        }
      ],
      "name": "RoleGranted",
      "type": "event"
    },
    {
      "anonymous": false,
      "inputs": [
        {
          "indexed": true,
          "internalType": "bytes32",
          "name": "role",
          "type": "bytes32"
        },
        {
          "indexed": true,
          "internalType": "address",
          "name": "account",
          "type": "address"
        },
        {
          "indexed": true,
          "internalType": "address",
          "name": "sender",
          "type": "address"
        }
      ],
      "name": "RoleRevoked",
      "type": "event"
    },
    {
      "inputs": [],
      "name": "DEFAULT_ADMIN_ROLE",
      "outputs": [
        {
          "internalType": "bytes32",
          "name": "",
          "type": "bytes32"
        }
      ],
      "stateMutability": "view",
      "type": "function"
    },
    {
      "inputs": [],
      "name": "ISSUER_ROLE",
      "outputs": [
        {
          "internalType": "bytes32",
          "name": "",
          "type": "bytes32"
        }
      ],
      "stateMutability": "view",
      "type": "function"
    },
    {
      "inputs": [
        {
          "internalType": "bytes32",
          "name": "role",
          "type": "bytes32"
        }
      ],
      "name": "getRoleAdmin",
      "outputs": [
        {
          "internalType": "bytes32",
          "name": "",
          "type": "bytes32"
        }
      ],
      "stateMutability": "view",
      "type": "function"
    },
    {
      "inputs": [
        {
          "internalType": "address",
          "name": "_issuer",
          "type": "address"
        }
      ],
      "name": "grantIssuerRole",
      "outputs": [],
      "stateMutability": "nonpayable",
      "type": "function"
    },
    {
      "inputs": [
        {
          "internalType": "bytes32",
          "name": "role",
          "type": "bytes32"
        },
        {
          "internalType": "address",
          "name": "account",
          "type": "address"
        }
      ],
      "name": "grantRole",
      "outputs": [],
      "stateMutability": "nonpayable",
      "type": "function"
    },
    {
      "inputs": [
        {
          "internalType": "bytes32",
          "name": "role",
          "type": "bytes32"
        },
        {
          "internalType": "address",
          "name": "account",
          "type": "address"
        }
      ],
      "name": "hasRole",
      "outputs": [
        {
          "internalType": "bool",
          "name": "",
          "type": "bool"
        }
      ],
      "stateMutability": "view",
      "type": "function"
    },
    {
      "inputs": [
        {
          "internalType": "bytes32",
          "name": "",
          "type": "bytes32"
        }
      ],
      "name": "isBatchCredentialRevoked",
      "outputs": [
        {
          "internalType": "bool",
          "name": "",
          "type": "bool"
        }
      ],
      "stateMutability": "view",
      "type": "function"
    },
    {
      "inputs": [
        {
          "internalType": "bytes32",
          "name": "_merkleRoot",
          "type": "bytes32"
        }
      ],
      "name": "issueBatchCredentials",
      "outputs": [],
      "stateMutability": "nonpayable",
      "type": "function"
    },
    {
      "inputs": [
        {
          "internalType": "bytes32",
          "name": "",
          "type": "bytes32"
        }
      ],
      "name": "merkleRootToIssuer",
      "outputs": [
        {
          "internalType": "address",
          "name": "",
          "type": "address"
        }
      ],
      "stateMutability": "view",
      "type": "function"
    },
    {
      "inputs": [
        {
          "internalType": "bytes32",
          "name": "role",
          "type": "bytes32"
        },
        {
          "internalType": "address",
          "name": "callerConfirmation",
          "type": "address"
        }
      ],
      "name": "renounceRole",
      "outputs": [],
      "stateMutability": "nonpayable",
      "type": "function"
    },
    {
      "inputs": [
        {
          "internalType": "bytes32",
          "name": "_leaf",
          "type": "bytes32"
        },
        {
          "internalType": "bytes32",
          "name": "_merkleRoot",
          "type": "bytes32"
        }
      ],
      "name": "revokeBatchCredential",
      "outputs": [],
      "stateMutability": "nonpayable",
      "type": "function"
    },
    {
      "inputs": [
        {
          "internalType": "address",
          "name": "_issuer",
          "type": "address"
        }
      ],
      "name": "revokeIssuerRole",
      "outputs": [],
      "stateMutability": "nonpayable",
      "type": "function"
    },
    {
      "inputs": [
        {
          "internalType": "bytes32",
          "name": "role",
          "type": "bytes32"
        },
        {
          "internalType": "address",
          "name": "account",
          "type": "address"
        }
      ],
      "name": "revokeRole",
      "outputs": [],
      "stateMutability": "nonpayable",
      "type": "function"
    },
    {
      "inputs": [
        {
          "internalType": "bytes4",
          "name": "interfaceId",
          "type": "bytes4"
        }
      ],
      "name": "supportsInterface",
      "outputs": [
        {
          "internalType": "bool",
          "name": "",
          "type": "bool"
        }
      ],
      "stateMutability": "view",
      "type": "function"
    },
    {
      "inputs": [
        {
          "internalType": "bytes32",
          "name": "_leaf",
          "type": "bytes32"
        },
        {
          "internalType": "bytes32",
          "name": "_merkleRoot",
          "type": "bytes32"
        },
        {
          "internalType": "bytes32[]",
          "name": "_proof",
          "type": "bytes32[]"
        }
      ],
      "name": "verifyCredential",
      "outputs": [
        {
          "internalType": "bool",
          "name": "",
          "type": "bool"
        },
        {
          "internalType": "address",
          "name": "",
          "type": "address"
        }
      ],
      "stateMutability": "view",
      "type": "function"
    }
  ],
  "bytecode": "0x608060405234801561001057600080fd5b5061001c60003361004d565b506100477f114e74f6ea3bd819998f78687bfcb11b140da08e9b7d222fa9c1f1ba1f2aa1223361004d565b506100f9565b6000828152602081815260408083206001600160a01b038516845290915281205460ff166100ef576000838152602081815260408083206001600160a01b03861684529091529020805460ff191660011790556100a73390565b6001600160a01b0316826001600160a01b0316847f2f8788117e7eff1d82e926ec794901d17c78024a50270940304540a733656f0d60405160405180910390a45060016100f3565b5060005b92915050565b610b86806101086000396000f3fe608060405234801561001057600080fd5b50600436106100f55760003560e01c80633750efbd11610097578063a5c8d38d11610066578063a5c8d38d14610254578063c7b2228114610267578063d277c0e91461027a578063d547741f1461028d57600080fd5b80633750efbd146101f257806382aefa241461022457806391d1485414610239578063a217fddf1461024c57600080fd5b80632f2ff15d116100d35780632f2ff15d1461016857806332ef2d181461017b57806334d62344146101bc57806336568abe146101df57600080fd5b806301ffc9a7146100fa578063140802ee14610122578063248a9ca314610137575b600080fd5b61010d610108366004610975565b6102a0565b60405190151581526020015b60405180910390f35b6101356101303660046109bb565b6102d7565b005b61015a6101453660046109d6565b60009081526020819052604090206001015490565b604051908152602001610119565b6101356101763660046109ef565b6102fe565b6101a46101893660046109d6565b6001602052600090815260409020546001600160a01b031681565b6040516001600160a01b039091168152602001610119565b61010d6101ca3660046109d6565b60026020526000908152604090205460ff1681565b6101356101ed3660046109ef565b610329565b610205610200366004610a1b565b610361565b6040805192151583526001600160a01b03909116602083015201610119565b61015a600080516020610b3183398151915281565b61010d6102473660046109ef565b610450565b61015a600081565b6101356102623660046109bb565b610479565b610135610275366004610aa1565b61049c565b6101356102883660046109d6565b610637565b61013561029b3660046109ef565b610713565b60006001600160e01b03198216637965db0b60e01b14806102d157506301ffc9a760e01b6001600160e01b03198316145b92915050565b60006102e281610738565b6102fa600080516020610b3183398151915283610713565b5050565b60008281526020819052604090206001015461031981610738565b6103238383610745565b50505050565b6001600160a01b03811633146103525760405163334bd91960e11b815260040160405180910390fd5b61035c82826107d7565b505050565b600084815260026020526040812054819060ff161561038557506000905080610447565b6000858152600160205260409020546001600160a01b0316806103af576000809250925050610447565b60006103f18686808060200260200160405190810160405280939291908181526020018383602002808284376000920191909152508b92508c91506108429050565b905061042b6040518060400160405280601681526020017513595c9adb19541c9bdbd98b9d995c9a599e48195cdd60521b81525082610858565b801561043d5750600192509050610447565b6000809350935050505b94509492505050565b6000918252602082815260408084206001600160a01b0393909316845291905290205460ff1690565b600061048481610738565b6102fa600080516020610b31833981519152836102fe565b6000818152600160205260409020546001600160a01b0316806105155760405162461bcd60e51b815260206004820152602660248201527f564352656769737472793a204d65726b6c6520726f6f7420646f6573206e6f7460448201526508195e1a5cdd60d21b60648201526084015b60405180910390fd5b336001600160a01b038216146105805760405162461bcd60e51b815260206004820152602a60248201527f564352656769737472793a2043616c6c6572206973206e6f74207468652062616044820152693a31b41034b9b9bab2b960b11b606482015260840161050c565b60008381526002602052604090205460ff16156105ee5760405162461bcd60e51b815260206004820152602660248201527f564352656769737472793a2043726564656e7469616c20616c72656164792072604482015265195d9bdad95960d21b606482015260840161050c565b600083815260026020526040808220805460ff19166001179055513391849186917f720df00d8608f5a65fb995fdbbcd0b074c6d735ed58409e545233da8fe86336891a4505050565b600080516020610b3183398151915261064f81610738565b6000828152600160205260409020546001600160a01b0316156106c35760405162461bcd60e51b815260206004820152602660248201527f564352656769737472793a204d65726b6c6520726f6f7420616c72656164792060448201526565786973747360d01b606482015260840161050c565b60008281526001602052604080822080546001600160a01b031916339081179091559051909184917f3c23cabea8b4a1c4e7221c18cd4d0faff57c53eb3a2ffcb22757ac101c2bdd439190a35050565b60008281526020819052604090206001015461072e81610738565b61032383836107d7565b610742813361089d565b50565b60006107518383610450565b6107cf576000838152602081815260408083206001600160a01b03861684529091529020805460ff191660011790556107873390565b6001600160a01b0316826001600160a01b0316847f2f8788117e7eff1d82e926ec794901d17c78024a50270940304540a733656f0d60405160405180910390a45060016102d1565b5060006102d1565b60006107e38383610450565b156107cf576000838152602081815260408083206001600160a01b0386168085529252808320805460ff1916905551339286917ff6391f5c32d9c69d2a47ea670b442974b53935d1edc7fd64eb21e047a839171b9190a45060016102d1565b60008261084f85846108d6565b14949350505050565b6102fa828260405160240161086e929190610ac3565b60408051601f198184030181529190526020810180516001600160e01b031663c3b5563560e01b179052610919565b6108a78282610450565b6102fa5760405163e2517d3f60e01b81526001600160a01b03821660048201526024810183905260440161050c565b600081815b845181101561091157610907828683815181106108fa576108fa610b1a565b6020026020010151610922565b91506001016108db565b509392505050565b61074281610954565b600081831061093e57600082815260208490526040902061094d565b60008381526020839052604090205b9392505050565b60006a636f6e736f6c652e6c6f679050600080835160208501845afa505050565b60006020828403121561098757600080fd5b81356001600160e01b03198116811461094d57600080fd5b80356001600160a01b03811681146109b657600080fd5b919050565b6000602082840312156109cd57600080fd5b61094d8261099f565b6000602082840312156109e857600080fd5b5035919050565b60008060408385031215610a0257600080fd5b82359150610a126020840161099f565b90509250929050565b60008060008060608587031215610a3157600080fd5b8435935060208501359250604085013567ffffffffffffffff811115610a5657600080fd5b8501601f81018713610a6757600080fd5b803567ffffffffffffffff811115610a7e57600080fd5b8760208260051b8401011115610a9357600080fd5b949793965060200194505050565b60008060408385031215610ab457600080fd5b50508035926020909101359150565b604081526000835180604084015260005b81811015610af15760208187018101516060868401015201610ad4565b506000606082850101526060601f19601f83011684010191505082151560208301529392505050565b634e487b7160e01b600052603260045260246000fdfe114e74f6ea3bd819998f78687bfcb11b140da08e9b7d222fa9c1f1ba1f2aa122a264697066735822122099ad9cce6b4c43829e6cd53d4e473c57853dcea01078a286e2866e955e8a76c364736f6c634300081c0033",
  "linkReferences": {},
  "deployedLinkReferences": {}
}